{
  "_format": "hh-sol-artifact-1",
  "contractName": "Box",
  "sourceName": "contracts/Box.sol",
  "abi": [
    {
      "inputs": [
        {
          "internalType": "address[]",
          "name": "bots",
          "type": "address[]"
        }
      ],
      "stateMutability": "nonpayable",
      "type": "constructor"
    },
    {
      "anonymous": false,
      "inputs": [
        {
          "indexed": true,
          "internalType": "address",
          "name": "previousOwner",
          "type": "address"
        },
        {
          "indexed": true,
          "internalType": "address",
          "name": "newOwner",
          "type": "address"
        }
      ],
      "name": "OwnershipTransferred",
      "type": "event"
    },
    {
      "anonymous": false,
      "inputs": [
        {
          "indexed": true,
          "internalType": "bytes32",
          "name": "role",
          "type": "bytes32"
        },
        {
          "indexed": true,
          "internalType": "bytes32",
          "name": "previousAdminRole",
          "type": "bytes32"
        },
        {
          "indexed": true,
          "internalType": "bytes32",
          "name": "newAdminRole",
          "type": "bytes32"
        }
      ],
      "name": "RoleAdminChanged",
      "type": "event"
    },
    {
      "anonymous": false,
      "inputs": [
        {
          "indexed": true,
          "internalType": "bytes32",
          "name": "role",
          "type": "bytes32"
        },
        {
          "indexed": true,
          "internalType": "address",
          "name": "account",
          "type": "address"
        },
        {
          "indexed": true,
          "internalType": "address",
          "name": "sender",
          "type": "address"
        }
      ],
      "name": "RoleGranted",
      "type": "event"
    },
    {
      "anonymous": false,
      "inputs": [
        {
          "indexed": true,
          "internalType": "bytes32",
          "name": "role",
          "type": "bytes32"
        },
        {
          "indexed": true,
          "internalType": "address",
          "name": "account",
          "type": "address"
        },
        {
          "indexed": true,
          "internalType": "address",
          "name": "sender",
          "type": "address"
        }
      ],
      "name": "RoleRevoked",
      "type": "event"
    },
    {
      "inputs": [],
      "name": "BOT_ROLE",
      "outputs": [
        {
          "internalType": "bytes32",
          "name": "",
          "type": "bytes32"
        }
      ],
      "stateMutability": "view",
      "type": "function"
    },
    {
      "inputs": [],
      "name": "DEFAULT_ADMIN_ROLE",
      "outputs": [
        {
          "internalType": "bytes32",
          "name": "",
          "type": "bytes32"
        }
      ],
      "stateMutability": "view",
      "type": "function"
    },
    {
      "inputs": [],
      "name": "_checkCollision",
      "outputs": [],
      "stateMutability": "nonpayable",
      "type": "function"
    },
    {
      "inputs": [],
      "name": "_unlockCollision",
      "outputs": [],
      "stateMutability": "nonpayable",
      "type": "function"
    },
    {
      "inputs": [
        {
          "internalType": "address[]",
          "name": "bots",
          "type": "address[]"
        }
      ],
      "name": "addBots",
      "outputs": [],
      "stateMutability": "nonpayable",
      "type": "function"
    },
    {
      "inputs": [
        {
          "internalType": "uint256",
          "name": "id",
          "type": "uint256"
        },
        {
          "internalType": "address",
          "name": "token",
          "type": "address"
        },
        {
          "internalType": "address",
          "name": "victimAddr",
          "type": "address"
        },
        {
          "internalType": "uint256",
          "name": "victimETH",
          "type": "uint256"
        },
        {
          "internalType": "uint256",
          "name": "victimExpected",
          "type": "uint256"
        },
        {
          "internalType": "uint256",
          "name": "victimGas",
          "type": "uint256"
        },
        {
          "internalType": "uint256",
          "name": "expectedProfit",
          "type": "uint256"
        }
      ],
      "name": "buy",
      "outputs": [],
      "stateMutability": "payable",
      "type": "function"
    },
    {
      "inputs": [
        {
          "internalType": "uint256",
          "name": "id",
          "type": "uint256"
        },
        {
          "internalType": "address",
          "name": "token",
          "type": "address"
        },
        {
          "internalType": "address",
          "name": "victimAddr",
          "type": "address"
        },
        {
          "internalType": "uint256",
          "name": "victimETH",
          "type": "uint256"
        },
        {
          "internalType": "uint256",
          "name": "victimExpected",
          "type": "uint256"
        },
        {
          "internalType": "uint256",
          "name": "victimGas",
          "type": "uint256"
        },
        {
          "internalType": "uint256",
          "name": "expectedProfit",
          "type": "uint256"
        }
      ],
      "name": "buyUnSafe",
      "outputs": [],
      "stateMutability": "payable",
      "type": "function"
    },
    {
      "inputs": [
        {
          "internalType": "uint256",
          "name": "id",
          "type": "uint256"
        }
      ],
      "name": "getAmountToSell",
      "outputs": [
        {
          "internalType": "uint256",
          "name": "",
          "type": "uint256"
        }
      ],
      "stateMutability": "view",
      "type": "function"
    },
    {
      "inputs": [
        {
          "internalType": "address",
          "name": "token",
          "type": "address"
        }
      ],
      "name": "getBalance",
      "outputs": [
        {
          "internalType": "uint256",
          "name": "",
          "type": "uint256"
        }
      ],
      "stateMutability": "view",
      "type": "function"
    },
    {
      "inputs": [
        {
          "internalType": "bytes32",
          "name": "role",
          "type": "bytes32"
        }
      ],
      "name": "getRoleAdmin",
      "outputs": [
        {
          "internalType": "bytes32",
          "name": "",
          "type": "bytes32"
        }
      ],
      "stateMutability": "view",
      "type": "function"
    },
    {
      "inputs": [
        {
          "internalType": "bytes32",
          "name": "role",
          "type": "bytes32"
        },
        {
          "internalType": "uint256",
          "name": "index",
          "type": "uint256"
        }
      ],
      "name": "getRoleMember",
      "outputs": [
        {
          "internalType": "address",
          "name": "",
          "type": "address"
        }
      ],
      "stateMutability": "view",
      "type": "function"
    },
    {
      "inputs": [
        {
          "internalType": "bytes32",
          "name": "role",
          "type": "bytes32"
        }
      ],
      "name": "getRoleMemberCount",
      "outputs": [
        {
          "internalType": "uint256",
          "name": "",
          "type": "uint256"
        }
      ],
      "stateMutability": "view",
      "type": "function"
    },
    {
      "inputs": [
        {
          "internalType": "address",
          "name": "victim",
          "type": "address"
        }
      ],
      "name": "getVictimBalance",
      "outputs": [
        {
          "internalType": "uint256",
          "name": "",
          "type": "uint256"
        }
      ],
      "stateMutability": "view",
      "type": "function"
    },
    {
      "inputs": [
        {
          "internalType": "bytes32",
          "name": "role",
          "type": "bytes32"
        },
        {
          "internalType": "address",
          "name": "account",
          "type": "address"
        }
      ],
      "name": "grantRole",
      "outputs": [],
      "stateMutability": "nonpayable",
      "type": "function"
    },
    {
      "inputs": [
        {
          "internalType": "bytes32",
          "name": "role",
          "type": "bytes32"
        },
        {
          "internalType": "address",
          "name": "account",
          "type": "address"
        }
      ],
      "name": "hasRole",
      "outputs": [
        {
          "internalType": "bool",
          "name": "",
          "type": "bool"
        }
      ],
      "stateMutability": "view",
      "type": "function"
    },
    {
      "inputs": [
        {
          "internalType": "uint256",
          "name": "a",
          "type": "uint256"
        },
        {
          "internalType": "uint256",
          "name": "b",
          "type": "uint256"
        },
        {
          "internalType": "uint256",
          "name": "c",
          "type": "uint256"
        }
      ],
      "name": "negativeQuadratic",
      "outputs": [
        {
          "internalType": "uint256",
          "name": "",
          "type": "uint256"
        }
      ],
      "stateMutability": "pure",
      "type": "function"
    },
    {
      "inputs": [],
      "name": "owner",
      "outputs": [
        {
          "internalType": "address",
          "name": "",
          "type": "address"
        }
      ],
      "stateMutability": "view",
      "type": "function"
    },
    {
      "inputs": [
        {
          "internalType": "uint256",
          "name": "a",
          "type": "uint256"
        },
        {
          "internalType": "uint256",
          "name": "b",
          "type": "uint256"
        },
        {
          "internalType": "uint256",
          "name": "c",
          "type": "uint256"
        }
      ],
      "name": "positiveQuadratic",
      "outputs": [
        {
          "internalType": "uint256",
          "name": "",
          "type": "uint256"
        }
      ],
      "stateMutability": "pure",
      "type": "function"
    },
    {
      "inputs": [],
      "name": "renounceOwnership",
      "outputs": [],
      "stateMutability": "nonpayable",
      "type": "function"
    },
    {
      "inputs": [
        {
          "internalType": "bytes32",
          "name": "role",
          "type": "bytes32"
        },
        {
          "internalType": "address",
          "name": "account",
          "type": "address"
        }
      ],
      "name": "renounceRole",
      "outputs": [],
      "stateMutability": "nonpayable",
      "type": "function"
    },
    {
      "inputs": [
        {
          "internalType": "bytes32",
          "name": "role",
          "type": "bytes32"
        },
        {
          "internalType": "address",
          "name": "account",
          "type": "address"
        }
      ],
      "name": "revokeRole",
      "outputs": [],
      "stateMutability": "nonpayable",
      "type": "function"
    },
    {
      "inputs": [
        {
          "internalType": "uint256",
          "name": "id",
          "type": "uint256"
        },
        {
          "internalType": "address",
          "name": "token",
          "type": "address"
        }
      ],
      "name": "sell",
      "outputs": [],
      "stateMutability": "nonpayable",
      "type": "function"
    },
    {
      "inputs": [
        {
          "internalType": "address",
          "name": "token",
          "type": "address"
        }
      ],
      "name": "sellAll",
      "outputs": [],
      "stateMutability": "nonpayable",
      "type": "function"
    },
    {
      "inputs": [
        {
          "internalType": "address",
          "name": "token",
          "type": "address"
        }
      ],
      "name": "sellAllUnSafe",
      "outputs": [],
      "stateMutability": "nonpayable",
      "type": "function"
    },
    {
      "inputs": [
        {
          "internalType": "uint256",
          "name": "id",
          "type": "uint256"
        },
        {
          "internalType": "address",
          "name": "token",
          "type": "address"
        }
      ],
      "name": "sellUnSafe",
      "outputs": [],
      "stateMutability": "nonpayable",
      "type": "function"
    },
    {
      "inputs": [
        {
          "internalType": "uint256",
          "name": "_minSlippage",
          "type": "uint256"
        }
      ],
      "name": "setMinSlippage",
      "outputs": [],
      "stateMutability": "nonpayable",
      "type": "function"
    },
    {
      "inputs": [],
      "name": "transferEth",
      "outputs": [],
      "stateMutability": "nonpayable",
      "type": "function"
    },
    {
      "inputs": [
        {
          "internalType": "uint256",
          "name": "amount",
          "type": "uint256"
        }
      ],
      "name": "transferEthAmount",
      "outputs": [],
      "stateMutability": "nonpayable",
      "type": "function"
    },
    {
      "inputs": [
        {
          "internalType": "address",
          "name": "newOwner",
          "type": "address"
        }
      ],
      "name": "transferOwnership",
      "outputs": [],
      "stateMutability": "nonpayable",
      "type": "function"
    },
    {
      "inputs": [
        {
          "internalType": "address",
          "name": "token",
          "type": "address"
        }
      ],
      "name": "transferToken",
      "outputs": [],
      "stateMutability": "nonpayable",
      "type": "function"
    },
    {
      "inputs": [
        {
          "internalType": "address",
          "name": "token",
          "type": "address"
        },
        {
          "internalType": "uint256",
          "name": "amount",
          "type": "uint256"
        }
      ],
      "name": "transferTokenAmount",
      "outputs": [],
      "stateMutability": "nonpayable",
      "type": "function"
    },
    {
      "stateMutability": "payable",
      "type": "receive"
    }
  ],
  "bytecode": "0x60806040527fffffffffffffffffffffffffffffffffffffffffffffffffffffffffffffffff60025560636008553480156200003a57600080fd5b5060405162004f5b38038062004f5b833981810160405260208110156200006057600080fd5b81019080805160405193929190846401000000008211156200008157600080fd5b838201915060208201858111156200009857600080fd5b8251866020820283011164010000000082111715620000b657600080fd5b8083526020830192505050908051906020019060200280838360005b83811015620000ef578082015181840152602081019050620000d2565b5050505090500160405250505060006200010e6200027560201b60201c565b9050806000806101000a81548173ffffffffffffffffffffffffffffffffffffffff021916908373ffffffffffffffffffffffffffffffffffffffff1602179055508073ffffffffffffffffffffffffffffffffffffffff16600073ffffffffffffffffffffffffffffffffffffffff167f8be0079c531659141344cd1fd0a4f28419497f9722a3daafe3b4186f6b6457e060405160405180910390a350737a250d5630b4cf539739df2c5dacb4c659f2488d600460006101000a81548173ffffffffffffffffffffffffffffffffffffffff021916908373ffffffffffffffffffffffffffffffffffffffff160217905550620002166000801b336200027d60201b60201c565b6200025d60405180807f424f545f524f4c4500000000000000000000000000000000000000000000000081525060080190506040518091039020336200027d60201b60201c565b6200026e816200029360201b60201c565b506200066e565b600033905090565b6200028f8282620003e060201b60201c565b5050565b620002a36200027560201b60201c565b73ffffffffffffffffffffffffffffffffffffffff166000809054906101000a900473ffffffffffffffffffffffffffffffffffffffff1673ffffffffffffffffffffffffffffffffffffffff161462000365576040517f08c379a00000000000000000000000000000000000000000000000000000000081526004018080602001828103825260208152602001807f4f776e61626c653a2063616c6c6572206973206e6f7420746865206f776e657281525060200191505060405180910390fd5b60008090505b8151811015620003dc57620003d060405180807f424f545f524f4c4500000000000000000000000000000000000000000000000081525060080190506040518091039020838381518110620003bc57fe5b60200260200101516200048460201b60201c565b8060010190506200036b565b5050565b6200040f81600160008581526020019081526020016000206000016200052860201b62003d3f1790919060201c565b156200048057620004256200027560201b60201c565b73ffffffffffffffffffffffffffffffffffffffff168173ffffffffffffffffffffffffffffffffffffffff16837f2f8788117e7eff1d82e926ec794901d17c78024a50270940304540a733656f0d60405160405180910390a45b5050565b620004bb6001600084815260200190815260200160002060020154620004af6200027560201b60201c565b6200056060201b60201c565b62000512576040517f08c379a000000000000000000000000000000000000000000000000000000000815260040180806020018281038252602f81526020018062004f2c602f913960400191505060405180910390fd5b620005248282620003e060201b60201c565b5050565b600062000558836000018373ffffffffffffffffffffffffffffffffffffffff1660001b6200059960201b60201c565b905092915050565b60006200059182600160008681526020019081526020016000206000016200061360201b620038dc1790919060201c565b905092915050565b6000620005ad83836200064b60201b60201c565b620006085782600001829080600181540180825580915050600190039060005260206000200160009091909190915055826000018054905083600101600084815260200190815260200160002081905550600190506200060d565b600090505b92915050565b600062000643836000018373ffffffffffffffffffffffffffffffffffffffff1660001b6200064b60201b60201c565b905092915050565b600080836001016000848152602001908152602001600020541415905092915050565b6148ae806200067e6000396000f3fe6080604052600436106101dc5760003560e01c806391d1485411610102578063d34628cc11610095578063e3ac254211610064578063e3ac254214610af1578063e3e01f9f14610b42578063f2fde38b14610b7d578063f8b2cb4f14610bce576101e3565b8063d34628cc14610969578063d547741f14610a2e578063d84f6abb14610a89578063deebeac914610aa0576101e3565b8063b1503774116100d1578063b150377414610845578063bbb4a1d714610870578063bc4a655c146108bf578063ca15c8731461091a576101e3565b806391d14854146106f3578063928e4f051461076657806393fda162146107c9578063a217fddf1461081a576101e3565b80635100c7221161017a578063801aa70711610149578063801aa707146105c55780638ba19ca6146105dc5780638da5cb5b146106175780639010d07c1461066e576101e3565b80635100c7221461049c578063598526861461053257806368e6af4a14610549578063715018a6146105ae576101e3565b806336568abe116101b657806336568abe146102ed5780633c1e2cbb146103485780634189a68e146103de5780635088fa9e14610439576101e3565b80631d1d4305146101e8578063248a9ca3146102435780632f2ff15d14610292576101e3565b366101e357005b600080fd5b3480156101f457600080fd5b506102416004803603604081101561020b57600080fd5b81019080803573ffffffffffffffffffffffffffffffffffffffff16906020019092919080359060200190929190505050610c33565b005b34801561024f57600080fd5b5061027c6004803603602081101561026657600080fd5b8101908080359060200190929190505050610fce565b6040518082815260200191505060405180910390f35b34801561029e57600080fd5b506102eb600480360360408110156102b557600080fd5b8101908080359060200190929190803573ffffffffffffffffffffffffffffffffffffffff169060200190929190505050610fee565b005b3480156102f957600080fd5b506103466004803603604081101561031057600080fd5b8101908080359060200190929190803573ffffffffffffffffffffffffffffffffffffffff169060200190929190505050611078565b005b6103dc600480360360e081101561035e57600080fd5b8101908080359060200190929190803573ffffffffffffffffffffffffffffffffffffffff169060200190929190803573ffffffffffffffffffffffffffffffffffffffff16906020019092919080359060200190929190803590602001909291908035906020019092919080359060200190929190505050611111565b005b3480156103ea57600080fd5b506104376004803603604081101561040157600080fd5b8101908080359060200190929190803573ffffffffffffffffffffffffffffffffffffffff16906020019092919050505061153b565b005b34801561044557600080fd5b506104866004803603606081101561045c57600080fd5b81019080803590602001909291908035906020019092919080359060200190929190505050611657565b6040518082815260200191505060405180910390f35b610530600480360360e08110156104b257600080fd5b8101908080359060200190929190803573ffffffffffffffffffffffffffffffffffffffff169060200190929190803573ffffffffffffffffffffffffffffffffffffffff1690602001909291908035906020019092919080359060200190929190803590602001909291908035906020019092919050505061169e565b005b34801561053e57600080fd5b50610547611a0a565b005b34801561055557600080fd5b506105986004803603602081101561056c57600080fd5b81019080803573ffffffffffffffffffffffffffffffffffffffff169060200190929190505050611b04565b6040518082815260200191505060405180910390f35b3480156105ba57600080fd5b506105c3611b25565b005b3480156105d157600080fd5b506105da611cad565b005b3480156105e857600080fd5b50610615600480360360208110156105ff57600080fd5b8101908080359060200190929190505050611d4d565b005b34801561062357600080fd5b5061062c611e48565b604051808273ffffffffffffffffffffffffffffffffffffffff1673ffffffffffffffffffffffffffffffffffffffff16815260200191505060405180910390f35b34801561067a57600080fd5b506106b16004803603604081101561069157600080fd5b810190808035906020019092919080359060200190929190505050611e71565b604051808273ffffffffffffffffffffffffffffffffffffffff1673ffffffffffffffffffffffffffffffffffffffff16815260200191505060405180910390f35b3480156106ff57600080fd5b5061074c6004803603604081101561071657600080fd5b8101908080359060200190929190803573ffffffffffffffffffffffffffffffffffffffff169060200190929190505050611ea3565b604051808215151515815260200191505060405180910390f35b34801561077257600080fd5b506107b36004803603606081101561078957600080fd5b81019080803590602001909291908035906020019092919080359060200190929190505050611ed5565b6040518082815260200191505060405180910390f35b3480156107d557600080fd5b50610818600480360360208110156107ec57600080fd5b81019080803573ffffffffffffffffffffffffffffffffffffffff169060200190929190505050611f22565b005b34801561082657600080fd5b5061082f612065565b6040518082815260200191505060405180910390f35b34801561085157600080fd5b5061085a61206c565b6040518082815260200191505060405180910390f35b34801561087c57600080fd5b506108a96004803603602081101561089357600080fd5b81019080803590602001909291905050506120a5565b6040518082815260200191505060405180910390f35b3480156108cb57600080fd5b50610918600480360360408110156108e257600080fd5b8101908080359060200190929190803573ffffffffffffffffffffffffffffffffffffffff16906020019092919050505061214b565b005b34801561092657600080fd5b506109536004803603602081101561093d57600080fd5b8101908080359060200190929190505050612343565b6040518082815260200191505060405180910390f35b34801561097557600080fd5b50610a2c6004803603602081101561098c57600080fd5b81019080803590602001906401000000008111156109a957600080fd5b8201836020820111156109bb57600080fd5b803590602001918460208302840111640100000000831117156109dd57600080fd5b919080806020026020016040519081016040528093929190818152602001838360200280828437600081840152601f19601f82011690508083019250505050505050919291929050505061236a565b005b348015610a3a57600080fd5b50610a8760048036036040811015610a5157600080fd5b8101908080359060200190929190803573ffffffffffffffffffffffffffffffffffffffff1690602001909291905050506124a3565b005b348015610a9557600080fd5b50610a9e61252d565b005b348015610aac57600080fd5b50610aef60048036036020811015610ac357600080fd5b81019080803573ffffffffffffffffffffffffffffffffffffffff16906020019092919050505061254a565b005b348015610afd57600080fd5b50610b4060048036036020811015610b1457600080fd5b81019080803573ffffffffffffffffffffffffffffffffffffffff1690602001909291905050506129a1565b005b348015610b4e57600080fd5b50610b7b60048036036020811015610b6557600080fd5b8101908080359060200190929190505050612a7e565b005b348015610b8957600080fd5b50610bcc60048036036020811015610ba057600080fd5b81019080803573ffffffffffffffffffffffffffffffffffffffff169060200190929190505050612b39565b005b348015610bda57600080fd5b50610c1d60048036036020811015610bf157600080fd5b81019080803573ffffffffffffffffffffffffffffffffffffffff169060200190929190505050612d46565b6040518082815260200191505060405180910390f35b610c7260405180807f424f545f524f4c450000000000000000000000000000000000000000000000008152506008019050604051809103902033611ea3565b610ce4576040517f08c379a000000000000000000000000000000000000000000000000000000000815260040180806020018281038252600b8152602001807f4143434553535f44454e5900000000000000000000000000000000000000000081525060200191505060405180910390fd5b6000829050600360008473ffffffffffffffffffffffffffffffffffffffff1673ffffffffffffffffffffffffffffffffffffffff16815260200190815260200160002060003073ffffffffffffffffffffffffffffffffffffffff1673ffffffffffffffffffffffffffffffffffffffff16815260200190815260200160002060009054906101000a900460ff16610ed2578073ffffffffffffffffffffffffffffffffffffffff1663095ea7b3306002546040518363ffffffff1660e01b8152600401808373ffffffffffffffffffffffffffffffffffffffff1673ffffffffffffffffffffffffffffffffffffffff16815260200182815260200192505050602060405180830381600087803b158015610e0057600080fd5b505af1158015610e14573d6000803e3d6000fd5b505050506040513d6020811015610e2a57600080fd5b8101908080519060200190929190505050506001600360008573ffffffffffffffffffffffffffffffffffffffff1673ffffffffffffffffffffffffffffffffffffffff16815260200190815260200160002060003073ffffffffffffffffffffffffffffffffffffffff1673ffffffffffffffffffffffffffffffffffffffff16815260200190815260200160002060006101000a81548160ff0219169083151502179055505b8073ffffffffffffffffffffffffffffffffffffffff166323b872dd3033856040518463ffffffff1660e01b8152600401808473ffffffffffffffffffffffffffffffffffffffff1673ffffffffffffffffffffffffffffffffffffffff1681526020018373ffffffffffffffffffffffffffffffffffffffff1673ffffffffffffffffffffffffffffffffffffffff1681526020018281526020019350505050602060405180830381600087803b158015610f8d57600080fd5b505af1158015610fa1573d6000803e3d6000fd5b505050506040513d6020811015610fb757600080fd5b810190808051906020019092919050505050505050565b600060016000838152602001908152602001600020600201549050919050565b6110156001600084815260200190815260200160002060020154611010612e0c565b611ea3565b61106a576040517f08c379a000000000000000000000000000000000000000000000000000000000815260040180806020018281038252602f815260200180614751602f913960400191505060405180910390fd5b6110748282612e14565b5050565b611080612e0c565b73ffffffffffffffffffffffffffffffffffffffff168173ffffffffffffffffffffffffffffffffffffffff1614611103576040517f08c379a000000000000000000000000000000000000000000000000000000000815260040180806020018281038252602f81526020018061484a602f913960400191505060405180910390fd5b61110d8282612ea8565b5050565b61115060405180807f424f545f524f4c450000000000000000000000000000000000000000000000008152506008019050604051809103902033611ea3565b6111c2576040517f08c379a000000000000000000000000000000000000000000000000000000000815260040180806020018281038252600b8152602001807f4143434553535f44454e5900000000000000000000000000000000000000000081525060200191505060405180910390fd5b600080611271600460009054906101000a900473ffffffffffffffffffffffffffffffffffffffff1673ffffffffffffffffffffffffffffffffffffffff1663ad5c46486040518163ffffffff1660e01b815260040160206040518083038186803b15801561123057600080fd5b505afa158015611244573d6000803e3d6000fd5b505050506040513d602081101561125a57600080fd5b810190808051906020019092919050505089612f3c565b91509150600061128383838989613153565b905034811115611291573490505b611299611cad565b6112a48888876131b1565b6112b2838389898589613254565b6000600f4201905060006112c58b612d46565b9050600460009054906101000a900473ffffffffffffffffffffffffffffffffffffffff1673ffffffffffffffffffffffffffffffffffffffff16637ff36ab58460016113118f613312565b30876040518663ffffffff1660e01b815260040180858152602001806020018473ffffffffffffffffffffffffffffffffffffffff1673ffffffffffffffffffffffffffffffffffffffff168152602001838152602001828103825285818151815260200191508051906020019060200280838360005b838110156113a3578082015181840152602081019050611388565b50505050905001955050505050506000604051808303818588803b1580156113ca57600080fd5b505af11580156113de573d6000803e3d6000fd5b50505050506040513d6000823e3d601f19601f82011682018060405250602081101561140957600080fd5b810190808051604051939291908464010000000082111561142957600080fd5b8382019150602082018581111561143f57600080fd5b825186602082028301116401000000008211171561145c57600080fd5b8083526020830192505050908051906020019060200280838360005b83811015611493578082015181840152602081019050611478565b505050509050016040525050505060006114ac8c612d46565b90506114ca8d6114c5848461349a90919063ffffffff16565b6134e4565b8334111561152c573373ffffffffffffffffffffffffffffffffffffffff166108fc6114ff863461349a90919063ffffffff16565b9081150290604051600060405180830381858888f1935050505015801561152a573d6000803e3d6000fd5b505b50505050505050505050505050565b61157a60405180807f424f545f524f4c450000000000000000000000000000000000000000000000008152506008019050604051809103902033611ea3565b6115ec576040517f08c379a000000000000000000000000000000000000000000000000000000000815260040180806020018281038252600b8152602001807f4143434553535f44454e5900000000000000000000000000000000000000000081525060200191505060405180910390fd5b600060056000848152602001908152602001600020541461164b5760006005600084815260200190815260200160002054905060008114611649576116318183613500565b60056000848152602001908152602001600020600090555b505b61165361252d565b5050565b6000806116798560028588600402028161166d57fe5b04026002860a03613860565b90508381111561169157808460000301915050611697565b60009150505b9392505050565b6116dd60405180807f424f545f524f4c450000000000000000000000000000000000000000000000008152506008019050604051809103902033611ea3565b61174f576040517f08c379a000000000000000000000000000000000000000000000000000000000815260040180806020018281038252600b8152602001807f4143434553535f44454e5900000000000000000000000000000000000000000081525060200191505060405180910390fd5b6000806117fe600460009054906101000a900473ffffffffffffffffffffffffffffffffffffffff1673ffffffffffffffffffffffffffffffffffffffff1663ad5c46486040518163ffffffff1660e01b815260040160206040518083038186803b1580156117bd57600080fd5b505afa1580156117d1573d6000803e3d6000fd5b505050506040513d60208110156117e757600080fd5b810190808051906020019092919050505089612f3c565b91509150600061181083838989613153565b90503481111561181e573490505b611826611cad565b6118318888876131b1565b61183f838389898589613254565b6000600f4201905060006118528b612d46565b9050600460009054906101000a900473ffffffffffffffffffffffffffffffffffffffff1673ffffffffffffffffffffffffffffffffffffffff1663b6f9de9584600161189e8f613312565b30876040518663ffffffff1660e01b815260040180858152602001806020018473ffffffffffffffffffffffffffffffffffffffff1673ffffffffffffffffffffffffffffffffffffffff168152602001838152602001828103825285818151815260200191508051906020019060200280838360005b83811015611930578082015181840152602081019050611915565b50505050905001955050505050506000604051808303818588803b15801561195757600080fd5b505af115801561196b573d6000803e3d6000fd5b5050505050600061197b8c612d46565b90506119998d611994848461349a90919063ffffffff16565b6134e4565b833411156119fb573373ffffffffffffffffffffffffffffffffffffffff166108fc6119ce863461349a90919063ffffffff16565b9081150290604051600060405180830381858888f193505050501580156119f9573d6000803e3d6000fd5b505b50505050505050505050505050565b611a4960405180807f424f545f524f4c450000000000000000000000000000000000000000000000008152506008019050604051809103902033611ea3565b611abb576040517f08c379a000000000000000000000000000000000000000000000000000000000815260040180806020018281038252600b8152602001807f4143434553535f44454e5900000000000000000000000000000000000000000081525060200191505060405180910390fd5b3373ffffffffffffffffffffffffffffffffffffffff166108fc479081150290604051600060405180830381858888f19350505050158015611b01573d6000803e3d6000fd5b50565b60008173ffffffffffffffffffffffffffffffffffffffff16319050919050565b611b2d612e0c565b73ffffffffffffffffffffffffffffffffffffffff166000809054906101000a900473ffffffffffffffffffffffffffffffffffffffff1673ffffffffffffffffffffffffffffffffffffffff1614611bee576040517f08c379a00000000000000000000000000000000000000000000000000000000081526004018080602001828103825260208152602001807f4f776e61626c653a2063616c6c6572206973206e6f7420746865206f776e657281525060200191505060405180910390fd5b600073ffffffffffffffffffffffffffffffffffffffff166000809054906101000a900473ffffffffffffffffffffffffffffffffffffffff1673ffffffffffffffffffffffffffffffffffffffff167f8be0079c531659141344cd1fd0a4f28419497f9722a3daafe3b4186f6b6457e060405160405180910390a360008060006101000a81548173ffffffffffffffffffffffffffffffffffffffff021916908373ffffffffffffffffffffffffffffffffffffffff160217905550565b600760009054906101000a900460ff1615611d30576040517f08c379a000000000000000000000000000000000000000000000000000000000815260040180806020018281038252600a8152602001807f414c52454144595f46520000000000000000000000000000000000000000000081525060200191505060405180910390fd5b6001600760006101000a81548160ff021916908315150217905550565b611d8c60405180807f424f545f524f4c450000000000000000000000000000000000000000000000008152506008019050604051809103902033611ea3565b611dfe576040517f08c379a000000000000000000000000000000000000000000000000000000000815260040180806020018281038252600b8152602001807f4143434553535f44454e5900000000000000000000000000000000000000000081525060200191505060405180910390fd5b3373ffffffffffffffffffffffffffffffffffffffff166108fc829081150290604051600060405180830381858888f19350505050158015611e44573d6000803e3d6000fd5b5050565b60008060009054906101000a900473ffffffffffffffffffffffffffffffffffffffff16905090565b6000611e9b82600160008681526020019081526020016000206000016138c290919063ffffffff16565b905092915050565b6000611ecd82600160008681526020019081526020016000206000016138dc90919063ffffffff16565b905092915050565b600080611ef785600285886004020281611eeb57fe5b04026002860a03613860565b905060008185600003031115611f1557808460000303915050611f1b565b60009150505b9392505050565b611f6160405180807f424f545f524f4c450000000000000000000000000000000000000000000000008152506008019050604051809103902033611ea3565b611fd3576040517f08c379a000000000000000000000000000000000000000000000000000000000815260040180806020018281038252600b8152602001807f4143434553535f44454e5900000000000000000000000000000000000000000081525060200191505060405180910390fd5b6000611fde82612d46565b90506000811415612057576040517f08c379a00000000000000000000000000000000000000000000000000000000081526004018080602001828103825260108152602001807f4e4f5f544f4b454e5f42414c414e43450000000000000000000000000000000081525060200191505060405180910390fd5b612061818361390c565b5050565b6000801b81565b60405180807f424f545f524f4c450000000000000000000000000000000000000000000000008152506008019050604051809103902081565b60008060056000848152602001908152602001600020541415612130576040517f08c379a000000000000000000000000000000000000000000000000000000000815260040180806020018281038252600d8152602001807f4e4f5f4255595f464f525f49440000000000000000000000000000000000000081525060200191505060405180910390fd5b60056000838152602001908152602001600020549050919050565b61218a60405180807f424f545f524f4c450000000000000000000000000000000000000000000000008152506008019050604051809103902033611ea3565b6121fc576040517f08c379a000000000000000000000000000000000000000000000000000000000815260040180806020018281038252600b8152602001807f4143434553535f44454e5900000000000000000000000000000000000000000081525060200191505060405180910390fd5b600060056000848152602001908152602001600020541415612286576040517f08c379a000000000000000000000000000000000000000000000000000000000815260040180806020018281038252600d8152602001807f4e4f5f4255595f464f525f49440000000000000000000000000000000000000081525060200191505060405180910390fd5b6000600560008481526020019081526020016000205490506000811415612315576040517f08c379a00000000000000000000000000000000000000000000000000000000081526004018080602001828103825260108152602001807f4e4f5f544f4b454e5f42414c414e43450000000000000000000000000000000081525060200191505060405180910390fd5b61231f818361390c565b600560008481526020019081526020016000206000905561233e61252d565b505050565b600061236360016000848152602001908152602001600020600001613d2a565b9050919050565b612372612e0c565b73ffffffffffffffffffffffffffffffffffffffff166000809054906101000a900473ffffffffffffffffffffffffffffffffffffffff1673ffffffffffffffffffffffffffffffffffffffff1614612433576040517f08c379a00000000000000000000000000000000000000000000000000000000081526004018080602001828103825260208152602001807f4f776e61626c653a2063616c6c6572206973206e6f7420746865206f776e657281525060200191505060405180910390fd5b60008090505b815181101561249f5761249460405180807f424f545f524f4c450000000000000000000000000000000000000000000000008152506008019050604051809103902083838151811061248757fe5b6020026020010151610fee565b806001019050612439565b5050565b6124ca60016000848152602001908152602001600020600201546124c5612e0c565b611ea3565b61251f576040517f08c379a00000000000000000000000000000000000000000000000000000000081526004018080602001828103825260308152602001806147a66030913960400191505060405180910390fd5b6125298282612ea8565b5050565b6000600760006101000a81548160ff021916908315150217905550565b61258960405180807f424f545f524f4c450000000000000000000000000000000000000000000000008152506008019050604051809103902033611ea3565b6125fb576040517f08c379a000000000000000000000000000000000000000000000000000000000815260040180806020018281038252600b8152602001807f4143434553535f44454e5900000000000000000000000000000000000000000081525060200191505060405180910390fd5b6000819050600360008373ffffffffffffffffffffffffffffffffffffffff1673ffffffffffffffffffffffffffffffffffffffff16815260200190815260200160002060003073ffffffffffffffffffffffffffffffffffffffff1673ffffffffffffffffffffffffffffffffffffffff16815260200190815260200160002060009054906101000a900460ff166127e9578073ffffffffffffffffffffffffffffffffffffffff1663095ea7b3306002546040518363ffffffff1660e01b8152600401808373ffffffffffffffffffffffffffffffffffffffff1673ffffffffffffffffffffffffffffffffffffffff16815260200182815260200192505050602060405180830381600087803b15801561271757600080fd5b505af115801561272b573d6000803e3d6000fd5b505050506040513d602081101561274157600080fd5b8101908080519060200190929190505050506001600360008473ffffffffffffffffffffffffffffffffffffffff1673ffffffffffffffffffffffffffffffffffffffff16815260200190815260200160002060003073ffffffffffffffffffffffffffffffffffffffff1673ffffffffffffffffffffffffffffffffffffffff16815260200190815260200160002060006101000a81548160ff0219169083151502179055505b60008173ffffffffffffffffffffffffffffffffffffffff166370a08231306040518263ffffffff1660e01b8152600401808273ffffffffffffffffffffffffffffffffffffffff1673ffffffffffffffffffffffffffffffffffffffff16815260200191505060206040518083038186803b15801561286857600080fd5b505afa15801561287c573d6000803e3d6000fd5b505050506040513d602081101561289257600080fd5b810190808051906020019092919050505090508173ffffffffffffffffffffffffffffffffffffffff166323b872dd3033846040518463ffffffff1660e01b8152600401808473ffffffffffffffffffffffffffffffffffffffff1673ffffffffffffffffffffffffffffffffffffffff1681526020018373ffffffffffffffffffffffffffffffffffffffff1673ffffffffffffffffffffffffffffffffffffffff1681526020018281526020019350505050602060405180830381600087803b15801561296057600080fd5b505af1158015612974573d6000803e3d6000fd5b505050506040513d602081101561298a57600080fd5b810190808051906020019092919050505050505050565b6129e060405180807f424f545f524f4c450000000000000000000000000000000000000000000000008152506008019050604051809103902033611ea3565b612a52576040517f08c379a000000000000000000000000000000000000000000000000000000000815260040180806020018281038252600b8152602001807f4143434553535f44454e5900000000000000000000000000000000000000000081525060200191505060405180910390fd5b6000612a5d82612d46565b905060008114612a7257612a718183613500565b5b612a7a61252d565b5050565b612abd60405180807f424f545f524f4c450000000000000000000000000000000000000000000000008152506008019050604051809103902033611ea3565b612b2f576040517f08c379a000000000000000000000000000000000000000000000000000000000815260040180806020018281038252600b8152602001807f4143434553535f44454e5900000000000000000000000000000000000000000081525060200191505060405180910390fd5b8060088190555050565b612b41612e0c565b73ffffffffffffffffffffffffffffffffffffffff166000809054906101000a900473ffffffffffffffffffffffffffffffffffffffff1673ffffffffffffffffffffffffffffffffffffffff1614612c02576040517f08c379a00000000000000000000000000000000000000000000000000000000081526004018080602001828103825260208152602001807f4f776e61626c653a2063616c6c6572206973206e6f7420746865206f776e657281525060200191505060405180910390fd5b600073ffffffffffffffffffffffffffffffffffffffff168173ffffffffffffffffffffffffffffffffffffffff161415612c88576040517f08c379a00000000000000000000000000000000000000000000000000000000081526004018080602001828103825260268152602001806147806026913960400191505060405180910390fd5b8073ffffffffffffffffffffffffffffffffffffffff166000809054906101000a900473ffffffffffffffffffffffffffffffffffffffff1673ffffffffffffffffffffffffffffffffffffffff167f8be0079c531659141344cd1fd0a4f28419497f9722a3daafe3b4186f6b6457e060405160405180910390a3806000806101000a81548173ffffffffffffffffffffffffffffffffffffffff021916908373ffffffffffffffffffffffffffffffffffffffff16021790555050565b6000808290508073ffffffffffffffffffffffffffffffffffffffff166370a08231306040518263ffffffff1660e01b8152600401808273ffffffffffffffffffffffffffffffffffffffff1673ffffffffffffffffffffffffffffffffffffffff16815260200191505060206040518083038186803b158015612dc957600080fd5b505afa158015612ddd573d6000803e3d6000fd5b505050506040513d6020811015612df357600080fd5b8101908080519060200190929190505050915050919050565b600033905090565b612e3c8160016000858152602001908152602001600020600001613d3f90919063ffffffff16565b15612ea457612e49612e0c565b73ffffffffffffffffffffffffffffffffffffffff168173ffffffffffffffffffffffffffffffffffffffff16837f2f8788117e7eff1d82e926ec794901d17c78024a50270940304540a733656f0d60405160405180910390a45b5050565b612ed08160016000858152602001908152602001600020600001613d6f90919063ffffffff16565b15612f3857612edd612e0c565b73ffffffffffffffffffffffffffffffffffffffff168173ffffffffffffffffffffffffffffffffffffffff16837ff6391f5c32d9c69d2a47ea670b442974b53935d1edc7fd64eb21e047a839171b60405160405180910390a45b5050565b6000806000735c69bee701ef814a2b6a3edd4b1652cb9cc5aa6f73ffffffffffffffffffffffffffffffffffffffff1663e6a4390586866040518363ffffffff1660e01b8152600401808373ffffffffffffffffffffffffffffffffffffffff1673ffffffffffffffffffffffffffffffffffffffff1681526020018273ffffffffffffffffffffffffffffffffffffffff1673ffffffffffffffffffffffffffffffffffffffff1681526020019250505060206040518083038186803b15801561300657600080fd5b505afa15801561301a573d6000803e3d6000fd5b505050506040513d602081101561303057600080fd5b810190808051906020019092919050505090506000808273ffffffffffffffffffffffffffffffffffffffff16630902f1ac6040518163ffffffff1660e01b815260040160606040518083038186803b15801561308c57600080fd5b505afa1580156130a0573d6000803e3d6000fd5b505050506040513d60608110156130b657600080fd5b81019080805190602001909291908051906020019092919080519060200190929190505050506dffffffffffffffffffffffffffff1691506dffffffffffffffffffffffffffff1691508573ffffffffffffffffffffffffffffffffffffffff168773ffffffffffffffffffffffffffffffffffffffff1610156131425781819450945050505061314c565b8082945094505050505b9250929050565b6000808290506000848402878560020202019050600087878702028887870202898a880202010390506000613189848484611657565b905060008111156131a057809450505050506131a9565b60009450505050505b949350505050565b600081111561324f576131dc8373ffffffffffffffffffffffffffffffffffffffff16318383613d9f565b61324e576040517f08c379a00000000000000000000000000000000000000000000000000000000081526004018080602001828103825260148152602001807f4e4f545f454e4f5547485f565f42414c414e434500000000000000000000000081525060200191505060405180910390fd5b5b505050565b6000831180156132645750600081115b1561330a5760008061327a888888888888613dc0565b915091506001831115613307578180156132945750828110155b613306576040517f08c379a00000000000000000000000000000000000000000000000000000000081526004018080602001828103825260108152602001807f50524f4649545f4e4f5f50524f4649540000000000000000000000000000000081525060200191505060405180910390fd5b5b50505b505050505050565b606080600267ffffffffffffffff8111801561332d57600080fd5b5060405190808252806020026020018201604052801561335c5781602001602082028036833780820191505090505b509050600460009054906101000a900473ffffffffffffffffffffffffffffffffffffffff1673ffffffffffffffffffffffffffffffffffffffff1663ad5c46486040518163ffffffff1660e01b815260040160206040518083038186803b1580156133c757600080fd5b505afa1580156133db573d6000803e3d6000fd5b505050506040513d60208110156133f157600080fd5b81019080805190602001909291905050508160008151811061340f57fe5b602002602001019073ffffffffffffffffffffffffffffffffffffffff16908173ffffffffffffffffffffffffffffffffffffffff1681525050828160018151811061345757fe5b602002602001019073ffffffffffffffffffffffffffffffffffffffff16908173ffffffffffffffffffffffffffffffffffffffff168152505080915050919050565b60006134dc83836040518060400160405280601e81526020017f536166654d6174683a207375627472616374696f6e206f766572666c6f770000815250613f89565b905092915050565b8060056000848152602001908152602001600020819055505050565b60008090506000600f42019050600660008473ffffffffffffffffffffffffffffffffffffffff1673ffffffffffffffffffffffffffffffffffffffff1681526020019081526020016000206000737a250d5630b4cf539739df2c5dacb4c659f2488d73ffffffffffffffffffffffffffffffffffffffff1673ffffffffffffffffffffffffffffffffffffffff16815260200190815260200160002060009054906101000a900460ff166137385760008390508073ffffffffffffffffffffffffffffffffffffffff1663095ea7b3737a250d5630b4cf539739df2c5dacb4c659f2488d6002546040518363ffffffff1660e01b8152600401808373ffffffffffffffffffffffffffffffffffffffff1673ffffffffffffffffffffffffffffffffffffffff16815260200182815260200192505050602060405180830381600087803b15801561365157600080fd5b505af1158015613665573d6000803e3d6000fd5b505050506040513d602081101561367b57600080fd5b8101908080519060200190929190505050506001600660008673ffffffffffffffffffffffffffffffffffffffff1673ffffffffffffffffffffffffffffffffffffffff1681526020019081526020016000206000737a250d5630b4cf539739df2c5dacb4c659f2488d73ffffffffffffffffffffffffffffffffffffffff1673ffffffffffffffffffffffffffffffffffffffff16815260200190815260200160002060006101000a81548160ff021916908315150217905550505b600460009054906101000a900473ffffffffffffffffffffffffffffffffffffffff1673ffffffffffffffffffffffffffffffffffffffff1663791ac947858461378187614049565b33866040518663ffffffff1660e01b815260040180868152602001858152602001806020018473ffffffffffffffffffffffffffffffffffffffff1673ffffffffffffffffffffffffffffffffffffffff168152602001838152602001828103825285818151815260200191508051906020019060200280838360005b838110156138195780820151818401526020810190506137fe565b505050509050019650505050505050600060405180830381600087803b15801561384257600080fd5b505af1158015613856573d6000803e3d6000fd5b5050505050505050565b600060038211156138af57819050600060016002848161387c57fe5b040190505b818110156138a95780915060028182858161389857fe5b0401816138a157fe5b049050613881565b506138bd565b600082146138bc57600190505b5b919050565b60006138d183600001836141d1565b60001c905092915050565b6000613904836000018373ffffffffffffffffffffffffffffffffffffffff1660001b614254565b905092915050565b60008090506000600f42019050600660008473ffffffffffffffffffffffffffffffffffffffff1673ffffffffffffffffffffffffffffffffffffffff1681526020019081526020016000206000737a250d5630b4cf539739df2c5dacb4c659f2488d73ffffffffffffffffffffffffffffffffffffffff1673ffffffffffffffffffffffffffffffffffffffff16815260200190815260200160002060009054906101000a900460ff16613b445760008390508073ffffffffffffffffffffffffffffffffffffffff1663095ea7b3737a250d5630b4cf539739df2c5dacb4c659f2488d6002546040518363ffffffff1660e01b8152600401808373ffffffffffffffffffffffffffffffffffffffff1673ffffffffffffffffffffffffffffffffffffffff16815260200182815260200192505050602060405180830381600087803b158015613a5d57600080fd5b505af1158015613a71573d6000803e3d6000fd5b505050506040513d6020811015613a8757600080fd5b8101908080519060200190929190505050506001600660008673ffffffffffffffffffffffffffffffffffffffff1673ffffffffffffffffffffffffffffffffffffffff1681526020019081526020016000206000737a250d5630b4cf539739df2c5dacb4c659f2488d73ffffffffffffffffffffffffffffffffffffffff1673ffffffffffffffffffffffffffffffffffffffff16815260200190815260200160002060006101000a81548160ff021916908315150217905550505b600460009054906101000a900473ffffffffffffffffffffffffffffffffffffffff1673ffffffffffffffffffffffffffffffffffffffff166318cbafe58584613b8d87614049565b33866040518663ffffffff1660e01b815260040180868152602001858152602001806020018473ffffffffffffffffffffffffffffffffffffffff1673ffffffffffffffffffffffffffffffffffffffff168152602001838152602001828103825285818151815260200191508051906020019060200280838360005b83811015613c25578082015181840152602081019050613c0a565b505050509050019650505050505050600060405180830381600087803b158015613c4e57600080fd5b505af1158015613c62573d6000803e3d6000fd5b505050506040513d6000823e3d601f19601f820116820180604052506020811015613c8c57600080fd5b8101908080516040519392919084640100000000821115613cac57600080fd5b83820191506020820185811115613cc257600080fd5b8251866020820283011164010000000082111715613cdf57600080fd5b8083526020830192505050908051906020019060200280838360005b83811015613d16578082015181840152602081019050613cfb565b505050509050016040525050505050505050565b6000613d3882600001614277565b9050919050565b6000613d67836000018373ffffffffffffffffffffffffffffffffffffffff1660001b614288565b905092915050565b6000613d97836000018373ffffffffffffffffffffffffffffffffffffffff1660001b6142f8565b905092915050565b6000613db482846143e090919063ffffffff16565b84101590509392505050565b600080600085118015613dd35750600083115b15613f73576000613de5858a8a614468565b9050613e22613e136103e8613e056103e58961459890919063ffffffff16565b61461e90919063ffffffff16565b8a6143e090919063ffffffff16565b9850613e37818961349a90919063ffffffff16565b97506000613e46888b8b614468565b9050613e83613e746103e8613e666103e58c61459890919063ffffffff16565b61461e90919063ffffffff16565b8b6143e090919063ffffffff16565b9950613e98818a61349a90919063ffffffff16565b98506001851115613f1a5786811015613f19576040517f08c379a00000000000000000000000000000000000000000000000000000000081526004018080602001828103825260158152602001807f50524f4649545f4e4f545f454e4f5547485f4f5554000000000000000000000081525060200191505060405180910390fd5b5b6000613f27838b8d614468565b905086811115613f52576001613f46888361349a90919063ffffffff16565b94509450505050613f7e565b6000613f67828961349a90919063ffffffff16565b94509450505050613f7e565b600080809050915091505b965096945050505050565b6000838311158290614036576040517f08c379a00000000000000000000000000000000000000000000000000000000081526004018080602001828103825283818151815260200191508051906020019080838360005b83811015613ffb578082015181840152602081019050613fe0565b50505050905090810190601f1680156140285780820380516001836020036101000a031916815260200191505b509250505060405180910390fd5b5060008385039050809150509392505050565b606080600267ffffffffffffffff8111801561406457600080fd5b506040519080825280602002602001820160405280156140935781602001602082028036833780820191505090505b509050600460009054906101000a900473ffffffffffffffffffffffffffffffffffffffff1673ffffffffffffffffffffffffffffffffffffffff1663ad5c46486040518163ffffffff1660e01b815260040160206040518083038186803b1580156140fe57600080fd5b505afa158015614112573d6000803e3d6000fd5b505050506040513d602081101561412857600080fd5b81019080805190602001909291905050508160018151811061414657fe5b602002602001019073ffffffffffffffffffffffffffffffffffffffff16908173ffffffffffffffffffffffffffffffffffffffff1681525050828160008151811061418e57fe5b602002602001019073ffffffffffffffffffffffffffffffffffffffff16908173ffffffffffffffffffffffffffffffffffffffff168152505080915050919050565b600081836000018054905011614232576040517f08c379a000000000000000000000000000000000000000000000000000000000815260040180806020018281038252602281526020018061472f6022913960400191505060405180910390fd5b82600001828154811061424157fe5b9060005260206000200154905092915050565b600080836001016000848152602001908152602001600020541415905092915050565b600081600001805490509050919050565b60006142948383614254565b6142ed5782600001829080600181540180825580915050600190039060005260206000200160009091909190915055826000018054905083600101600084815260200190815260200160002081905550600190506142f2565b600090505b92915050565b600080836001016000848152602001908152602001600020549050600081146143d4576000600182039050600060018660000180549050039050600086600001828154811061434357fe5b906000526020600020015490508087600001848154811061436057fe5b906000526020600020018190555060018301876001016000838152602001908152602001600020819055508660000180548061439857fe5b600190038181906000526020600020016000905590558660010160008781526020019081526020016000206000905560019450505050506143da565b60009150505b92915050565b60008082840190508381101561445e576040517f08c379a000000000000000000000000000000000000000000000000000000000815260040180806020018281038252601b8152602001807f536166654d6174683a206164646974696f6e206f766572666c6f77000000000081525060200191505060405180910390fd5b8091505092915050565b60008084116144c2576040517f08c379a000000000000000000000000000000000000000000000000000000000815260040180806020018281038252602b81526020018061481f602b913960400191505060405180910390fd5b6000831180156144d25750600082115b614527576040517f08c379a00000000000000000000000000000000000000000000000000000000081526004018080602001828103825260288152602001806147d66028913960400191505060405180910390fd5b600061453e6103e58661459890919063ffffffff16565b90506000614555848361459890919063ffffffff16565b90506000614580836145726103e88961459890919063ffffffff16565b6143e090919063ffffffff16565b905080828161458b57fe5b0493505050509392505050565b6000808314156145ab5760009050614618565b60008284029050828482816145bc57fe5b0414614613576040517f08c379a00000000000000000000000000000000000000000000000000000000081526004018080602001828103825260218152602001806147fe6021913960400191505060405180910390fd5b809150505b92915050565b600061466083836040518060400160405280601a81526020017f536166654d6174683a206469766973696f6e206279207a65726f000000000000815250614668565b905092915050565b60008083118290614714576040517f08c379a00000000000000000000000000000000000000000000000000000000081526004018080602001828103825283818151815260200191508051906020019080838360005b838110156146d95780820151818401526020810190506146be565b50505050905090810190601f1680156147065780820380516001836020036101000a031916815260200191505b509250505060405180910390fd5b50600083858161472057fe5b04905080915050939250505056fe456e756d657261626c655365743a20696e646578206f7574206f6620626f756e6473416363657373436f6e74726f6c3a2073656e646572206d75737420626520616e2061646d696e20746f206772616e744f776e61626c653a206e6577206f776e657220697320746865207a65726f2061646472657373416363657373436f6e74726f6c3a2073656e646572206d75737420626520616e2061646d696e20746f207265766f6b65556e697377617056324c6962726172793a20494e53554646494349454e545f4c4951554944495459536166654d6174683a206d756c7469706c69636174696f6e206f766572666c6f77556e697377617056324c6962726172793a20494e53554646494349454e545f494e5055545f414d4f554e54416363657373436f6e74726f6c3a2063616e206f6e6c792072656e6f756e636520726f6c657320666f722073656c66a264697066735822122043683d5c168cf5958eae0ff9ec925da6f56ad33614747361cdbede290cc04dd164736f6c63430006060033416363657373436f6e74726f6c3a2073656e646572206d75737420626520616e2061646d696e20746f206772616e74",
  "linkReferences": {},
  "deployedLinkReferences": {}
}